{
  "address": "0xaf3C681273ff6a7335f0ecfFb6514f335498475d",
  "abi": [
    {
      "inputs": [],
      "stateMutability": "nonpayable",
      "type": "constructor"
    },
    {
      "inputs": [],
      "name": "CellAlreadyRevealed",
      "type": "error"
    },
    {
      "inputs": [],
      "name": "GameNotActive",
      "type": "error"
    },
    {
      "inputs": [],
      "name": "InvalidCellIndex",
      "type": "error"
    },
    {
      "inputs": [],
      "name": "InvalidKMSSignatures",
      "type": "error"
    },
    {
      "inputs": [],
      "name": "InvalidProof",
      "type": "error"
    },
    {
      "inputs": [],
      "name": "MinesNotInitialized",
      "type": "error"
    },
    {
      "inputs": [],
      "name": "NoRevealPending",
      "type": "error"
    },
    {
      "inputs": [],
      "name": "NotYourGame",
      "type": "error"
    },
    {
      "inputs": [],
      "name": "RevealAlreadyPending",
      "type": "error"
    },
    {
      "inputs": [],
      "name": "ZamaProtocolUnsupported",
      "type": "error"
    },
    {
      "anonymous": false,
      "inputs": [
        {
          "indexed": true,
          "internalType": "uint256",
          "name": "gameId",
          "type": "uint256"
        },
        {
          "indexed": false,
          "internalType": "uint8",
          "name": "cellIndex",
          "type": "uint8"
        },
        {
          "indexed": true,
          "internalType": "address",
          "name": "player",
          "type": "address"
        },
        {
          "indexed": false,
          "internalType": "bytes32",
          "name": "handle",
          "type": "bytes32"
        }
      ],
      "name": "CellRevealRequested",
      "type": "event"
    },
    {
      "anonymous": false,
      "inputs": [
        {
          "indexed": true,
          "internalType": "uint256",
          "name": "gameId",
          "type": "uint256"
        },
        {
          "indexed": false,
          "internalType": "uint8",
          "name": "cellIndex",
          "type": "uint8"
        },
        {
          "indexed": false,
          "internalType": "bool",
          "name": "isMine",
          "type": "bool"
        }
      ],
      "name": "CellRevealed",
      "type": "event"
    },
    {
      "anonymous": false,
      "inputs": [
        {
          "indexed": true,
          "internalType": "uint256",
          "name": "gameId",
          "type": "uint256"
        },
        {
          "indexed": true,
          "internalType": "address",
          "name": "player",
          "type": "address"
        }
      ],
      "name": "GameLost",
      "type": "event"
    },
    {
      "anonymous": false,
      "inputs": [
        {
          "indexed": true,
          "internalType": "uint256",
          "name": "gameId",
          "type": "uint256"
        },
        {
          "indexed": true,
          "internalType": "address",
          "name": "player",
          "type": "address"
        }
      ],
      "name": "GameStarted",
      "type": "event"
    },
    {
      "anonymous": false,
      "inputs": [
        {
          "indexed": true,
          "internalType": "uint256",
          "name": "gameId",
          "type": "uint256"
        },
        {
          "indexed": true,
          "internalType": "address",
          "name": "player",
          "type": "address"
        },
        {
          "indexed": false,
          "internalType": "uint256",
          "name": "clearTime",
          "type": "uint256"
        }
      ],
      "name": "GameWon",
      "type": "event"
    },
    {
      "anonymous": false,
      "inputs": [],
      "name": "MinesInitialized",
      "type": "event"
    },
    {
      "anonymous": false,
      "inputs": [
        {
          "indexed": false,
          "internalType": "bytes32[]",
          "name": "handlesList",
          "type": "bytes32[]"
        },
        {
          "indexed": false,
          "internalType": "bytes",
          "name": "abiEncodedCleartexts",
          "type": "bytes"
        }
      ],
      "name": "PublicDecryptionVerified",
      "type": "event"
    },
    {
      "inputs": [],
      "name": "CELL_HIDDEN",
      "outputs": [
        {
          "internalType": "uint8",
          "name": "",
          "type": "uint8"
        }
      ],
      "stateMutability": "view",
      "type": "function"
    },
    {
      "inputs": [],
      "name": "CELL_PENDING",
      "outputs": [
        {
          "internalType": "uint8",
          "name": "",
          "type": "uint8"
        }
      ],
      "stateMutability": "view",
      "type": "function"
    },
    {
      "inputs": [],
      "name": "CELL_REVEALED_MINE",
      "outputs": [
        {
          "internalType": "uint8",
          "name": "",
          "type": "uint8"
        }
      ],
      "stateMutability": "view",
      "type": "function"
    },
    {
      "inputs": [],
      "name": "CELL_REVEALED_SAFE",
      "outputs": [
        {
          "internalType": "uint8",
          "name": "",
          "type": "uint8"
        }
      ],
      "stateMutability": "view",
      "type": "function"
    },
    {
      "inputs": [],
      "name": "GRID_SIZE",
      "outputs": [
        {
          "internalType": "uint8",
          "name": "",
          "type": "uint8"
        }
      ],
      "stateMutability": "view",
      "type": "function"
    },
    {
      "inputs": [],
      "name": "MINE_COUNT",
      "outputs": [
        {
          "internalType": "uint8",
          "name": "",
          "type": "uint8"
        }
      ],
      "stateMutability": "view",
      "type": "function"
    },
    {
      "inputs": [],
      "name": "TOTAL_CELLS",
      "outputs": [
        {
          "internalType": "uint8",
          "name": "",
          "type": "uint8"
        }
      ],
      "stateMutability": "view",
      "type": "function"
    },
    {
      "inputs": [],
      "name": "cancelReveal",
      "outputs": [],
      "stateMutability": "nonpayable",
      "type": "function"
    },
    {
      "inputs": [
        {
          "internalType": "bool",
          "name": "isMine",
          "type": "bool"
        },
        {
          "internalType": "bytes",
          "name": "decryptionProof",
          "type": "bytes"
        }
      ],
      "name": "completeReveal",
      "outputs": [],
      "stateMutability": "nonpayable",
      "type": "function"
    },
    {
      "inputs": [],
      "name": "confidentialProtocolId",
      "outputs": [
        {
          "internalType": "uint256",
          "name": "",
          "type": "uint256"
        }
      ],
      "stateMutability": "view",
      "type": "function"
    },
    {
      "inputs": [],
      "name": "gameCounter",
      "outputs": [
        {
          "internalType": "uint256",
          "name": "",
          "type": "uint256"
        }
      ],
      "stateMutability": "view",
      "type": "function"
    },
    {
      "inputs": [
        {
          "internalType": "uint256",
          "name": "",
          "type": "uint256"
        }
      ],
      "name": "games",
      "outputs": [
        {
          "internalType": "address",
          "name": "player",
          "type": "address"
        },
        {
          "internalType": "uint256",
          "name": "startTime",
          "type": "uint256"
        },
        {
          "internalType": "uint256",
          "name": "endTime",
          "type": "uint256"
        },
        {
          "internalType": "uint8",
          "name": "revealedCount",
          "type": "uint8"
        },
        {
          "internalType": "uint8",
          "name": "safeRevealed",
          "type": "uint8"
        },
        {
          "internalType": "enum FHEMinesweeper.GameState",
          "name": "state",
          "type": "uint8"
        }
      ],
      "stateMutability": "view",
      "type": "function"
    },
    {
      "inputs": [
        {
          "internalType": "uint256",
          "name": "gameId",
          "type": "uint256"
        }
      ],
      "name": "getAllCellStates",
      "outputs": [
        {
          "internalType": "uint8[25]",
          "name": "states",
          "type": "uint8[25]"
        }
      ],
      "stateMutability": "view",
      "type": "function"
    },
    {
      "inputs": [
        {
          "internalType": "uint256",
          "name": "gameId",
          "type": "uint256"
        },
        {
          "internalType": "uint8",
          "name": "cellIndex",
          "type": "uint8"
        }
      ],
      "name": "getCellState",
      "outputs": [
        {
          "internalType": "uint8",
          "name": "",
          "type": "uint8"
        }
      ],
      "stateMutability": "view",
      "type": "function"
    },
    {
      "inputs": [
        {
          "internalType": "uint256",
          "name": "gameId",
          "type": "uint256"
        }
      ],
      "name": "getGameInfo",
      "outputs": [
        {
          "internalType": "address",
          "name": "player",
          "type": "address"
        },
        {
          "internalType": "uint256",
          "name": "startTime",
          "type": "uint256"
        },
        {
          "internalType": "uint256",
          "name": "endTime",
          "type": "uint256"
        },
        {
          "internalType": "uint8",
          "name": "revealedCount",
          "type": "uint8"
        },
        {
          "internalType": "uint8",
          "name": "safeRevealed",
          "type": "uint8"
        },
        {
          "internalType": "enum FHEMinesweeper.GameState",
          "name": "state",
          "type": "uint8"
        }
      ],
      "stateMutability": "view",
      "type": "function"
    },
    {
      "inputs": [],
      "name": "getLeaderboardLength",
      "outputs": [
        {
          "internalType": "uint256",
          "name": "",
          "type": "uint256"
        }
      ],
      "stateMutability": "view",
      "type": "function"
    },
    {
      "inputs": [
        {
          "internalType": "address",
          "name": "player",
          "type": "address"
        }
      ],
      "name": "getPendingReveal",
      "outputs": [
        {
          "internalType": "uint256",
          "name": "gameId",
          "type": "uint256"
        },
        {
          "internalType": "uint8",
          "name": "cellIndex",
          "type": "uint8"
        },
        {
          "internalType": "bytes32",
          "name": "handle",
          "type": "bytes32"
        }
      ],
      "stateMutability": "view",
      "type": "function"
    },
    {
      "inputs": [
        {
          "internalType": "uint256",
          "name": "count",
          "type": "uint256"
        }
      ],
      "name": "getTopLeaderboard",
      "outputs": [
        {
          "components": [
            {
              "internalType": "address",
              "name": "player",
              "type": "address"
            },
            {
              "internalType": "uint256",
              "name": "clearTime",
              "type": "uint256"
            },
            {
              "internalType": "uint256",
              "name": "timestamp",
              "type": "uint256"
            }
          ],
          "internalType": "struct FHEMinesweeper.LeaderboardEntry[]",
          "name": "",
          "type": "tuple[]"
        }
      ],
      "stateMutability": "view",
      "type": "function"
    },
    {
      "inputs": [
        {
          "internalType": "address",
          "name": "player",
          "type": "address"
        }
      ],
      "name": "hasActiveGame",
      "outputs": [
        {
          "internalType": "bool",
          "name": "",
          "type": "bool"
        },
        {
          "internalType": "uint256",
          "name": "",
          "type": "uint256"
        }
      ],
      "stateMutability": "view",
      "type": "function"
    },
    {
      "inputs": [
        {
          "internalType": "address",
          "name": "player",
          "type": "address"
        }
      ],
      "name": "hasPendingReveal",
      "outputs": [
        {
          "internalType": "bool",
          "name": "",
          "type": "bool"
        }
      ],
      "stateMutability": "view",
      "type": "function"
    },
    {
      "inputs": [],
      "name": "initializeMines",
      "outputs": [],
      "stateMutability": "nonpayable",
      "type": "function"
    },
    {
      "inputs": [
        {
          "internalType": "uint256",
          "name": "",
          "type": "uint256"
        }
      ],
      "name": "leaderboard",
      "outputs": [
        {
          "internalType": "address",
          "name": "player",
          "type": "address"
        },
        {
          "internalType": "uint256",
          "name": "clearTime",
          "type": "uint256"
        },
        {
          "internalType": "uint256",
          "name": "timestamp",
          "type": "uint256"
        }
      ],
      "stateMutability": "view",
      "type": "function"
    },
    {
      "inputs": [],
      "name": "minesInitialized",
      "outputs": [
        {
          "internalType": "bool",
          "name": "",
          "type": "bool"
        }
      ],
      "stateMutability": "view",
      "type": "function"
    },
    {
      "inputs": [],
      "name": "owner",
      "outputs": [
        {
          "internalType": "address",
          "name": "",
          "type": "address"
        }
      ],
      "stateMutability": "view",
      "type": "function"
    },
    {
      "inputs": [
        {
          "internalType": "address",
          "name": "",
          "type": "address"
        }
      ],
      "name": "pendingReveals",
      "outputs": [
        {
          "internalType": "uint256",
          "name": "gameId",
          "type": "uint256"
        },
        {
          "internalType": "uint8",
          "name": "cellIndex",
          "type": "uint8"
        },
        {
          "internalType": "ebool",
          "name": "encryptedValue",
          "type": "bytes32"
        },
        {
          "internalType": "bool",
          "name": "pending",
          "type": "bool"
        }
      ],
      "stateMutability": "view",
      "type": "function"
    },
    {
      "inputs": [
        {
          "internalType": "uint256",
          "name": "gameId",
          "type": "uint256"
        },
        {
          "internalType": "uint8",
          "name": "cellIndex",
          "type": "uint8"
        }
      ],
      "name": "requestRevealCell",
      "outputs": [],
      "stateMutability": "nonpayable",
      "type": "function"
    },
    {
      "inputs": [],
      "name": "resetMines",
      "outputs": [],
      "stateMutability": "nonpayable",
      "type": "function"
    },
    {
      "inputs": [],
      "name": "startGame",
      "outputs": [
        {
          "internalType": "uint256",
          "name": "gameId",
          "type": "uint256"
        }
      ],
      "stateMutability": "nonpayable",
      "type": "function"
    }
  ],
  "transactionHash": "0x8a030f2bb28f1cf166199fe5d4fc3aac7a7187103b30590cbe0b4edff9e30de6",
  "args": [],
  "numDeployments": 1,
  "solcInputHash": "c9c527bd8eac248002719d71bc0e66c0",
  "bytecode": "0x608060405234801561000f575f80fd5b506100c461001b6100e0565b80517f9e7b61f58c47dc699ac88507c4f5bb9f121c03808c5676a8078fe583e464970080546001600160a01b03199081166001600160a01b039384161790915560208301517f9e7b61f58c47dc699ac88507c4f5bb9f121c03808c5676a8078fe583e46497018054831691841691909117905560408301517f9e7b61f58c47dc699ac88507c4f5bb9f121c03808c5676a8078fe583e46497028054909216921691909117905550565b60058054610100600160a81b031916336101000217905561024f565b604080516060810182525f808252602082018190529181019190915246600103610139575060408051606080820183525f8083526020808401829052928401819052835191820184528082529181018290529182015290565b4662aa36a7036101b8575060408051606080820183525f8083526020808401829052928401528251908101835273f0ffdc93b7e186bc2f8cb3daa75d86d1930a433d81527392c920834ec8941d2c77d188936e1f7a6f49c1279181019190915273be0e383937d564d7ff0bc3b46c51f0bf8d5c311a9181019190915290565b46617a6903610236575060408051606080820183525f8083526020808401829052928401528251908101835273f0ffdc93b7e186bc2f8cb3daa75d86d1930a433d81527392c920834ec8941d2c77d188936e1f7a6f49c1279181019190915273be0e383937d564d7ff0bc3b46c51f0bf8d5c311a9181019190915290565b6040516373cac13b60e01b815260040160405180910390fd5b6119258061025c5f395ff3fe608060405234801561000f575f80fd5b50600436106101bb575f3560e01c80638927b030116100f3578063cd699b9c11610093578063ea39a5e11161006e578063ea39a5e1146104cb578063f104a80d146104d8578063fd1e0ca814610502578063fe53fd9f1461050a575f80fd5b8063cd699b9c1461045b578063d0811dc3146104bb578063d65ab5f2146104c3575f80fd5b8063b03bb5ed116100ce578063b03bb5ed146103e8578063bf368399146103f0578063c4af7f5114610428578063ca2a3be214610448575f80fd5b80638927b030146103a85780638da5cb5b146103b0578063ab486607146103e0575f80fd5b8063500db9431161015e5780636ea8ff16116101395780636ea8ff16146103095780637af0195f146103615780637fc4eda8146101bf57806386629df1146103a0575f80fd5b8063500db943146102e757806351772165146102ef5780635e882642146102f6575f80fd5b80631521cd99116101995780631521cd99146102675780632e0be39a1461027157806347e1d550146102885780634ae73cec146102df575f80fd5b80630fe85468146101bf578063117a5b90146101de57806313e407bf14610247575b5f80fd5b6101c7600581565b60405160ff90911681526020015b60405180910390f35b6102356101ec3660046114d2565b600160208190525f918252604090912080549181015460028201546003909201546001600160a01b039093169290919060ff808216916101008104821691620100009091041686565b6040516101d5969594939291906114fd565b61025a6102553660046114d2565b61051d565b6040516101d5919061154d565b61026f61063d565b005b61027a60025481565b6040519081526020016101d5565b6102356102963660046114d2565b5f90815260016020819052604090912080549181015460028201546003909201546001600160a01b0390931693909260ff80821692610100830482169262010000900490911690565b6101c7601981565b6101c7600381565b6101c75f81565b61026f6103043660046115be565b6106af565b61034461031736600461163c565b6001600160a01b03165f90815260036020526040902080546001820154600290920154909260ff90921691565b6040805193845260ff9092166020840152908201526060016101d5565b61039061036f36600461163c565b6001600160a01b03165f908152600360208190526040909120015460ff1690565b60405190151581526020016101d5565b61026f610a71565b61027a610ace565b6005546103c89061010090046001600160a01b031681565b6040516001600160a01b0390911681526020016101d5565b60045461027a565b61026f610adc565b6104036103fe3660046114d2565b610c06565b604080516001600160a01b0390941684526020840192909252908201526060016101d5565b61043b6104363660046114d2565b610c41565b6040516101d59190611662565b6101c7610456366004611696565b610ca9565b61049761046936600461163c565b600360208190525f91825260409091208054600182015460028301549290930154909260ff90811692911684565b6040805194855260ff909316602085015291830152151560608201526080016101d5565b6101c7600281565b61027a610cd4565b6005546103909060ff1681565b6104eb6104e636600461163c565b610d7c565b6040805192151583526020830191909152016101d5565b6101c7600181565b61026f610518366004611696565b610e39565b6004546060905f9083116105315782610535565b6004545b90505f8167ffffffffffffffff811115610551576105516116c9565b6040519080825280602002602001820160405280156105ac57816020015b61059960405180606001604052805f6001600160a01b031681526020015f81526020015f81525090565b81526020019060019003908161056f5790505b5090505f5b8281101561063557600481815481106105cc576105cc6116dd565b5f91825260209182902060408051606081018252600390930290910180546001600160a01b03168352600181015493830193909352600290920154918101919091528251839083908110610622576106226116dd565b60209081029190910101526001016105b1565b509392505050565b335f9081526003602081905260409091209081015460ff166106725760405163aac930df60e01b815260040160405180910390fd5b80545f9081526001602081815260408084209285015460ff168452600490920190529020805460ff19908116909155600390910180549091169055565b335f9081526003602081905260409091209081015460ff166106e45760405163aac930df60e01b815260040160405180910390fd5b6040805160018082528183019092525f91602080830190803683370190505090508160020154815f8151811061071c5761071c6116dd565b6020026020010181815250506107848186604051602001610741911515815260200190565b60408051601f198184030181526020601f8901819004810284018101909252878352919088908890819084018382808284375f9201919091525061101792505050565b81545f9081526001602081905260408220908401546003808601805460ff1916905582018054929360ff92831693909216916107bf83611705565b91906101000a81548160ff021916908360ff1602179055505086156108895760ff81165f9081526004830160205260409020805460ff191660021790556003808301805462ff000019166201000083021790555042600283015583546040805160ff84168152600160208201527f4fee09d74b2146cdedaf124e2de0ff5d05a22aad4e42a024de39f542a5c66b71910160405180910390a283546040513391907fd1adc29f276f18037bc749c06e6ffb0caaa8dcb1d37ca0ab2d73a0bce1c2fbdd905f90a3610a68565b60ff8082165f9081526004840160205260409020805460ff19166001908117909155600384018054610100900490921691906108c483611705565b82546101009290920a60ff81810219909316918316021790915585546040805192851683525f60208401529092507f4fee09d74b2146cdedaf124e2de0ff5d05a22aad4e42a024de39f542a5c66b71910160405180910390a261092960056019611723565b600383015460ff91821661010090910490911603610a685760038201805462ff0000191662020000179055426002830181905560018301545f9161096d919061173c565b6040805160608101825233808252602080830185815242848601908152600480546001810182555f9190915294517f8a35acfbc15ff81a39ae7d344fd709f28e8600b4aa8c65c6b64bfe7fe36bd19b600390960295860180546001600160a01b0319166001600160a01b0390921691909117905590517f8a35acfbc15ff81a39ae7d344fd709f28e8600b4aa8c65c6b64bfe7fe36bd19c850155517f8a35acfbc15ff81a39ae7d344fd709f28e8600b4aa8c65c6b64bfe7fe36bd19d9093019290925588549251848152939450927f9e59e9b0ec1755ccaf2fd4a7ed4ad5b0a678626e91834aee53ebdf1356bd390a910160405180910390a3505b50505050505050565b60055461010090046001600160a01b03163314610ac25760405162461bcd60e51b815260206004820152600a60248201526927b7363c9037bbb732b960b11b60448201526064015b60405180910390fd5b6005805460ff19169055565b5f610ad7611082565b905090565b60055461010090046001600160a01b03163314610b285760405162461bcd60e51b815260206004820152600a60248201526927b7363c9037bbb732b960b11b6044820152606401610ab9565b60055460ff1615610b7b5760405162461bcd60e51b815260206004820152601960248201527f4d696e657320616c726561647920696e697469616c697a6564000000000000006044820152606401610ab9565b5f5b601960ff82161015610bce575f610b926110b6565b9050610ba781610ba260336110c1565b6110d0565b60ff83165f908152602081905260409020819055610bc490611105565b5050600101610b7d565b506005805460ff191660011790556040517f78c91cbd8773ffd50a5914ca5eadfede3d19327c6912928b856bf5ef4e6c6ba4905f90a1565b60048181548110610c15575f80fd5b5f9182526020909120600390910201805460018201546002909201546001600160a01b03909116925083565b610c496114b3565b5f5b601960ff82161015610ca3575f83815260016020908152604080832060ff80861680865260049092019093529220541690839060198110610c8e57610c8e6116dd565b60ff9092166020929092020152600101610c4b565b50919050565b5f82815260016020908152604080832060ff8086168552600490910190925290912054165b92915050565b6005545f9060ff16610cf9576040516355e4a2bb60e01b815260040160405180910390fd5b60028054905f610d088361174f565b909155505f8181526001602081905260408083208054336001600160a01b031990911681178255429382019390935560038101805462ffffff191662010000179055905193945092909184917ffadb9547847a0c2c31f4c02590545e318d33d7aae99071caecf3fa4ce3cd7dca9190a35090565b6002545f9081905b8015610e2e576001600160a01b03841660015f610da1828561173c565b815260208101919091526040015f20546001600160a01b0316148015610e0157506001805f610dd0828561173c565b81526020019081526020015f2060030160029054906101000a900460ff166003811115610dff57610dff6114e9565b145b15610e1c576001610e12818361173c565b9250925050915091565b80610e2681611767565b915050610d84565b505f93849350915050565b5f8281526001602081905260409091209060038281015462010000900460ff1690811115610e6957610e696114e9565b14610e865760405162a3097160e01b815260040160405180910390fd5b80546001600160a01b03163314610eb057604051631794a8af60e11b815260040160405180910390fd5b601960ff831610610ed4576040516354a0b90160e11b815260040160405180910390fd5b60ff8281165f9081526004830160205260409020541615610f0857604051631484e16760e21b815260040160405180910390fd5b335f908152600360208190526040909120015460ff1615610f3c5760405163b59c293760e01b815260040160405180910390fd5b60ff8083165f818152602081815260408083205481516080810183528981528084018681528184018381526001606084018181523389526003808952878a20955186559351918501805492909b1660ff1992831617909a55905160028401559751918101805492151592891692909217909155948452600487019092529091208054909316909117909155610fd081611114565b506040805160ff8516815260208101839052339186917fa7abd9b972064a80033e50b52460b7ea2dd73f98187ed1842bb48f23b5adf320910160405180910390a350505050565b5f61102384848461111e565b9050806110435760405163cf6c44e960e01b815260040160405180910390fd5b7fc6366bab028b8d033cb362cfd1f2f3457ef4e92fc738b6788b90d5a7846367a084846040516110749291906117f9565b60405180910390a150505050565b5f466001036110915750600190565b4662aa36a7036110a2575061271190565b46617a69036110b157505f1990565b505f90565b5f610ad760026111cb565b5f610cce8260ff16600261126b565b5f826110e2576110df5f6110c1565b92505b816110f3576110f05f6110c1565b91505b6110fe83835f611315565b9392505050565b5f61111082306113ca565b5090565b5f61111082611435565b7f9e7b61f58c47dc699ac88507c4f5bb9f121c03808c5676a8078fe583e4649702546040516378542ead60e01b81525f915f805160206118d0833981519152916001600160a01b03909116906378542ead906111829088908890889060040161181d565b6020604051808303815f875af115801561119e573d5f803e3d5ffd5b505050506040513d601f19601f820116820180604052508101906111c29190611855565b95945050505050565b7f9e7b61f58c47dc699ac88507c4f5bb9f121c03808c5676a8078fe583e464970154604051636baeb74560e11b81525f915f805160206118d0833981519152916001600160a01b039091169063d75d6e8a9061122b908690600401611884565b6020604051808303815f875af1158015611247573d5f803e3d5ffd5b505050506040513d601f19601f820116820180604052508101906110fe9190611892565b7f9e7b61f58c47dc699ac88507c4f5bb9f121c03808c5676a8078fe583e464970154604051639cd07acb60e01b81525f915f805160206118d0833981519152916001600160a01b0390911690639cd07acb906112cd90879087906004016118a9565b6020604051808303815f875af11580156112e9573d5f803e3d5ffd5b505050506040513d601f19601f8201168201806040525081019061130d9190611892565b949350505050565b5f8082156113285750600160f81b61132b565b505f5b5f5f805160206118d08339815191526001810154604051637210768160e01b815260048101899052602481018890526001600160f81b0319851660448201529192506001600160a01b0316906372107681906064016020604051808303815f875af115801561139c573d5f803e3d5ffd5b505050506040513d601f19601f820116820180604052508101906113c09190611892565b9695505050505050565b5f805160206118d08339815191528054604051635ca4b5b160e11b8152600481018590526001600160a01b0384811660248301529091169063b9496b62906044015b5f604051808303815f87803b158015611423575f80fd5b505af1158015610a68573d5f803e3d5ffd5b6040805160018082528183019092525f805160206118d0833981519152915f91906020808301908036833701905050905082815f81518110611479576114796116dd565b60209081029190910101528154604051637d6e912360e11b81526001600160a01b039091169063fadd22469061140c9084906004016118bd565b6040518061032001604052806019906020820280368337509192915050565b5f602082840312156114e2575f80fd5b5035919050565b634e487b7160e01b5f52602160045260245ffd5b6001600160a01b0387168152602081018690526040810185905260ff84811660608301528316608082015260c081016004831061153c5761153c6114e9565b8260a0830152979650505050505050565b602080825282518282018190525f919060409081850190868401855b828110156115a157815180516001600160a01b0316855286810151878601528501518585015260609093019290850190600101611569565b5091979650505050505050565b80151581146115bb575f80fd5b50565b5f805f604084860312156115d0575f80fd5b83356115db816115ae565b9250602084013567ffffffffffffffff808211156115f7575f80fd5b818601915086601f83011261160a575f80fd5b813581811115611618575f80fd5b876020828501011115611629575f80fd5b6020830194508093505050509250925092565b5f6020828403121561164c575f80fd5b81356001600160a01b03811681146110fe575f80fd5b610320810181835f5b601981101561168d57815160ff1683526020928301929091019060010161166b565b50505092915050565b5f80604083850312156116a7575f80fd5b82359150602083013560ff811681146116be575f80fd5b809150509250929050565b634e487b7160e01b5f52604160045260245ffd5b634e487b7160e01b5f52603260045260245ffd5b634e487b7160e01b5f52601160045260245ffd5b5f60ff821660ff810361171a5761171a6116f1565b60010192915050565b60ff8281168282160390811115610cce57610cce6116f1565b81810381811115610cce57610cce6116f1565b5f60018201611760576117606116f1565b5060010190565b5f81611775576117756116f1565b505f190190565b5f815180845260208085019450602084015f5b838110156117ab5781518752958201959082019060010161178f565b509495945050505050565b5f81518084525f5b818110156117da576020818501810151868301820152016117be565b505f602082860101526020601f19601f83011685010191505092915050565b604081525f61180b604083018561177c565b82810360208401526111c281856117b6565b606081525f61182f606083018661177c565b828103602084015261184181866117b6565b905082810360408401526113c081856117b6565b5f60208284031215611865575f80fd5b81516110fe816115ae565b60548110611880576118806114e9565b9052565b60208101610cce8284611870565b5f602082840312156118a2575f80fd5b5051919050565b828152604081016110fe6020830184611870565b602081525f6110fe602083018461177c56fe9e7b61f58c47dc699ac88507c4f5bb9f121c03808c5676a8078fe583e4649700a2646970667358221220ddcd8001a3943b510a9665f24369e2f5e0b304faa1613fce44910ecfd719cdf464736f6c63430008180033",
  "devdoc": {
    "details": "Mine positions are encrypted - no one can see them until revealed      Uses async decryption pattern with makePubliclyDecryptable + checkSignatures",
    "kind": "dev",
    "methods": {
      "completeReveal(bool,bytes)": {
        "params": {
          "decryptionProof": "The KMS signature proof",
          "isMine": "The decrypted boolean value"
        }
      },
      "getAllCellStates(uint256)": {
        "params": {
          "gameId": "The game ID"
        },
        "returns": {
          "states": "Array of cell states"
        }
      },
      "getCellState(uint256,uint8)": {
        "params": {
          "cellIndex": "The cell index",
          "gameId": "The game ID"
        },
        "returns": {
          "_0": "Cell state (0=hidden, 1=safe, 2=mine, 3=pending)"
        }
      },
      "getGameInfo(uint256)": {
        "params": {
          "gameId": "The game ID"
        }
      },
      "getPendingReveal(address)": {
        "params": {
          "player": "The player address"
        }
      },
      "getTopLeaderboard(uint256)": {
        "params": {
          "count": "Number of entries to return"
        }
      },
      "hasActiveGame(address)": {
        "params": {
          "player": "The player address"
        }
      },
      "hasPendingReveal(address)": {
        "params": {
          "player": "The player address"
        }
      },
      "initializeMines()": {
        "details": "Only owner can call this. Uses FHE random to place mines      Places exactly MINE_COUNT mines in random positions"
      },
      "requestRevealCell(uint256,uint8)": {
        "params": {
          "cellIndex": "The cell to reveal (0-24)",
          "gameId": "The game ID"
        }
      },
      "startGame()": {
        "returns": {
          "gameId": "The ID of the newly created game"
        }
      }
    },
    "title": "FHEMinesweeper",
    "version": 1
  },
  "userdoc": {
    "errors": {
      "InvalidKMSSignatures()": [
        {
          "notice": "Returned if the returned KMS signatures are not valid."
        }
      ],
      "ZamaProtocolUnsupported()": [
        {
          "notice": "Returned if the Zama protocol is not supported on the current chain"
        }
      ]
    },
    "events": {
      "PublicDecryptionVerified(bytes32[],bytes)": {
        "notice": "This event is emitted when public decryption has been successfully verified."
      }
    },
    "kind": "user",
    "methods": {
      "cancelReveal()": {
        "notice": "Cancel a pending reveal request"
      },
      "completeReveal(bool,bytes)": {
        "notice": "Complete the reveal with decrypted value (Step 3: verify and process)"
      },
      "getAllCellStates(uint256)": {
        "notice": "Get all cell states for a game"
      },
      "getCellState(uint256,uint8)": {
        "notice": "Get the state of a specific cell in a game"
      },
      "getGameInfo(uint256)": {
        "notice": "Get game info"
      },
      "getLeaderboardLength()": {
        "notice": "Get leaderboard length"
      },
      "getPendingReveal(address)": {
        "notice": "Get pending reveal info"
      },
      "getTopLeaderboard(uint256)": {
        "notice": "Get top N entries from leaderboard"
      },
      "hasActiveGame(address)": {
        "notice": "Check if player has an active game"
      },
      "hasPendingReveal(address)": {
        "notice": "Check if player has pending reveal"
      },
      "initializeMines()": {
        "notice": "Initialize the mine grid with on-chain randomness"
      },
      "requestRevealCell(uint256,uint8)": {
        "notice": "Request to reveal a cell (Step 1: initiate async decryption)"
      },
      "resetMines()": {
        "notice": "Reset mines (only owner, for new rounds)"
      },
      "startGame()": {
        "notice": "Start a new game"
      }
    },
    "notice": "Privacy-preserving on-chain Minesweeper game using FHE",
    "version": 1
  },
  "storageLayout": {
    "storage": [
      {
        "astId": 39241,
        "contract": "contracts/FHEMinesweeper.sol:FHEMinesweeper",
        "label": "encryptedMines",
        "offset": 0,
        "slot": "0",
        "type": "t_mapping(t_uint8,t_userDefinedValueType(ebool)40079)"
      },
      {
        "astId": 39246,
        "contract": "contracts/FHEMinesweeper.sol:FHEMinesweeper",
        "label": "games",
        "offset": 0,
        "slot": "1",
        "type": "t_mapping(t_uint256,t_struct(Game)39226_storage)"
      },
      {
        "astId": 39248,
        "contract": "contracts/FHEMinesweeper.sol:FHEMinesweeper",
        "label": "gameCounter",
        "offset": 0,
        "slot": "2",
        "type": "t_uint256"
      },
      {
        "astId": 39253,
        "contract": "contracts/FHEMinesweeper.sol:FHEMinesweeper",
        "label": "pendingReveals",
        "offset": 0,
        "slot": "3",
        "type": "t_mapping(t_address,t_struct(RevealRequest)39236_storage)"
      },
      {
        "astId": 39264,
        "contract": "contracts/FHEMinesweeper.sol:FHEMinesweeper",
        "label": "leaderboard",
        "offset": 0,
        "slot": "4",
        "type": "t_array(t_struct(LeaderboardEntry)39260_storage)dyn_storage"
      },
      {
        "astId": 39322,
        "contract": "contracts/FHEMinesweeper.sol:FHEMinesweeper",
        "label": "minesInitialized",
        "offset": 0,
        "slot": "5",
        "type": "t_bool"
      },
      {
        "astId": 39324,
        "contract": "contracts/FHEMinesweeper.sol:FHEMinesweeper",
        "label": "owner",
        "offset": 1,
        "slot": "5",
        "type": "t_address"
      }
    ],
    "types": {
      "t_address": {
        "encoding": "inplace",
        "label": "address",
        "numberOfBytes": "20"
      },
      "t_array(t_struct(LeaderboardEntry)39260_storage)dyn_storage": {
        "base": "t_struct(LeaderboardEntry)39260_storage",
        "encoding": "dynamic_array",
        "label": "struct FHEMinesweeper.LeaderboardEntry[]",
        "numberOfBytes": "32"
      },
      "t_bool": {
        "encoding": "inplace",
        "label": "bool",
        "numberOfBytes": "1"
      },
      "t_enum(GameState)39208": {
        "encoding": "inplace",
        "label": "enum FHEMinesweeper.GameState",
        "numberOfBytes": "1"
      },
      "t_mapping(t_address,t_struct(RevealRequest)39236_storage)": {
        "encoding": "mapping",
        "key": "t_address",
        "label": "mapping(address => struct FHEMinesweeper.RevealRequest)",
        "numberOfBytes": "32",
        "value": "t_struct(RevealRequest)39236_storage"
      },
      "t_mapping(t_uint256,t_struct(Game)39226_storage)": {
        "encoding": "mapping",
        "key": "t_uint256",
        "label": "mapping(uint256 => struct FHEMinesweeper.Game)",
        "numberOfBytes": "32",
        "value": "t_struct(Game)39226_storage"
      },
      "t_mapping(t_uint8,t_uint8)": {
        "encoding": "mapping",
        "key": "t_uint8",
        "label": "mapping(uint8 => uint8)",
        "numberOfBytes": "32",
        "value": "t_uint8"
      },
      "t_mapping(t_uint8,t_userDefinedValueType(ebool)40079)": {
        "encoding": "mapping",
        "key": "t_uint8",
        "label": "mapping(uint8 => ebool)",
        "numberOfBytes": "32",
        "value": "t_userDefinedValueType(ebool)40079"
      },
      "t_struct(Game)39226_storage": {
        "encoding": "inplace",
        "label": "struct FHEMinesweeper.Game",
        "members": [
          {
            "astId": 39210,
            "contract": "contracts/FHEMinesweeper.sol:FHEMinesweeper",
            "label": "player",
            "offset": 0,
            "slot": "0",
            "type": "t_address"
          },
          {
            "astId": 39212,
            "contract": "contracts/FHEMinesweeper.sol:FHEMinesweeper",
            "label": "startTime",
            "offset": 0,
            "slot": "1",
            "type": "t_uint256"
          },
          {
            "astId": 39214,
            "contract": "contracts/FHEMinesweeper.sol:FHEMinesweeper",
            "label": "endTime",
            "offset": 0,
            "slot": "2",
            "type": "t_uint256"
          },
          {
            "astId": 39216,
            "contract": "contracts/FHEMinesweeper.sol:FHEMinesweeper",
            "label": "revealedCount",
            "offset": 0,
            "slot": "3",
            "type": "t_uint8"
          },
          {
            "astId": 39218,
            "contract": "contracts/FHEMinesweeper.sol:FHEMinesweeper",
            "label": "safeRevealed",
            "offset": 1,
            "slot": "3",
            "type": "t_uint8"
          },
          {
            "astId": 39221,
            "contract": "contracts/FHEMinesweeper.sol:FHEMinesweeper",
            "label": "state",
            "offset": 2,
            "slot": "3",
            "type": "t_enum(GameState)39208"
          },
          {
            "astId": 39225,
            "contract": "contracts/FHEMinesweeper.sol:FHEMinesweeper",
            "label": "cellStates",
            "offset": 0,
            "slot": "4",
            "type": "t_mapping(t_uint8,t_uint8)"
          }
        ],
        "numberOfBytes": "160"
      },
      "t_struct(LeaderboardEntry)39260_storage": {
        "encoding": "inplace",
        "label": "struct FHEMinesweeper.LeaderboardEntry",
        "members": [
          {
            "astId": 39255,
            "contract": "contracts/FHEMinesweeper.sol:FHEMinesweeper",
            "label": "player",
            "offset": 0,
            "slot": "0",
            "type": "t_address"
          },
          {
            "astId": 39257,
            "contract": "contracts/FHEMinesweeper.sol:FHEMinesweeper",
            "label": "clearTime",
            "offset": 0,
            "slot": "1",
            "type": "t_uint256"
          },
          {
            "astId": 39259,
            "contract": "contracts/FHEMinesweeper.sol:FHEMinesweeper",
            "label": "timestamp",
            "offset": 0,
            "slot": "2",
            "type": "t_uint256"
          }
        ],
        "numberOfBytes": "96"
      },
      "t_struct(RevealRequest)39236_storage": {
        "encoding": "inplace",
        "label": "struct FHEMinesweeper.RevealRequest",
        "members": [
          {
            "astId": 39228,
            "contract": "contracts/FHEMinesweeper.sol:FHEMinesweeper",
            "label": "gameId",
            "offset": 0,
            "slot": "0",
            "type": "t_uint256"
          },
          {
            "astId": 39230,
            "contract": "contracts/FHEMinesweeper.sol:FHEMinesweeper",
            "label": "cellIndex",
            "offset": 0,
            "slot": "1",
            "type": "t_uint8"
          },
          {
            "astId": 39233,
            "contract": "contracts/FHEMinesweeper.sol:FHEMinesweeper",
            "label": "encryptedValue",
            "offset": 0,
            "slot": "2",
            "type": "t_userDefinedValueType(ebool)40079"
          },
          {
            "astId": 39235,
            "contract": "contracts/FHEMinesweeper.sol:FHEMinesweeper",
            "label": "pending",
            "offset": 0,
            "slot": "3",
            "type": "t_bool"
          }
        ],
        "numberOfBytes": "128"
      },
      "t_uint256": {
        "encoding": "inplace",
        "label": "uint256",
        "numberOfBytes": "32"
      },
      "t_uint8": {
        "encoding": "inplace",
        "label": "uint8",
        "numberOfBytes": "1"
      },
      "t_userDefinedValueType(ebool)40079": {
        "encoding": "inplace",
        "label": "ebool",
        "numberOfBytes": "32"
      }
    }
  }
}